:020000040800F2
:1000000060070020D50100089F070008310500089F
:100010009D0700088D040008550C00080000000032
:1000200000000000000000000000000001090008BE
:100030008F0400080000000021080008C50900081E
:10004000EF010008EF010008EF010008EF010008D0
:10005000EF010008EF010008EF010008EF010008C0
:10006000EF010008EF010008EF010008EF010008B0
:10007000EF010008EF010008EF010008EF010008A0
:10008000EF010008EF010008EF010008EF01000890
:10009000EF010008EF010008EF010008EF01000880
:1000A000EF010008EF010008EF010008EF01000870
:1000B000EF010008EF010008EF010008EF01000860
:1000C000EF010008EF010008EF010008EF01000850
:1000D000EF010008450A0008EF010008EF010008E1
:1000E000EF010008EF010008EF010008EF01000830
:1000F000EF010008EF010008EF010008EF01000820
:10010000EF010008EF010008EF010008EF0100080F
:10011000EF010008EF010008EF010008EF010008FF
:10012000EF010008EF010008EF010008EF010008EF
:1001300000F002F800F03FF80AA090E8000C8244BA
:100140008344AAF10107DA4501D100F034F8AFF297
:10015000090EBAE80F0013F0010F18BFFB1A43F0A5
:1001600001031847C80E0000E80E0000103A24BF33
:1001700078C878C1FAD8520724BF30C830C144BF0C
:1001800004680C607047000000230024002500264E
:10019000103A28BF78C1FBD8520728BF30C148BFEA
:1001A0000B607047642900F07780002070471FB50E
:1001B0001FBD10B510BD00F037F91146FFF7F7FF6E
:1001C00000F0D0FE00F055F903B4FFF7F2FF03BCD6
:1001D00000F041FD0948804709480047FEE7FEE777
:1001E000FEE7FEE7FEE7FEE7FEE7FEE7FEE7FEE7E7
:1001F00004480549054A064B70470000C909000834
:100200003101000860010020600700206003002029
:1002100060030020704700000FB4044910B503AA22
:10022000029800F0D3F810BC5DF814FB2C000020FD
:100230002DE9F0410E460446002020622046E16888
:10024000884730B3252805D0D4E901219047206A9A
:10025000401CF2E7E168204600278847050018D0D7
:10026000A5F14100192802D820354FF40067324625
:10027000294620462760FFF795FF40B1012804D0AA
:10028000F61D26F007060836D8E7361DD6E72846BD
:10029000DAE7206ABDE8F0812DE9F0410646002446
:1002A00010687529314616A510D0AFF300800028DC
:1002B00002DA404213A507E031688A0701D512A58A
:1002C00002E0490704D511A5012401E0AFF3008045
:1002D00000210A2206F1240709E0B0FBF2FCB0FB82
:1002E000F2F302FB1C00303078541846491C0028F9
:1002F000F3D123462A463046BDE8F04100F00CB861
:10030000000000002D0000002B0000002000000075
:1003100070477047704770472DE9F0470D46994682
:100320009246044600F124080168880604D5E06975
:1003300021F01001216000E00120A84201DD471BEF
:1003400000E00027A1697A1902EB0900081AA061F0
:100350002078C00602D42046AFF30080002608E0D3
:10036000D4E901211AF806009047206A401C761C47
:1003700020624E45F4DB2078C0060AD52046AFF354
:10038000008006E0D4E9012130209047206A401C1B
:100390002062381EA7F10107F4DC07E0D4E901214F
:1003A00018F805009047206A401C2062281EA5F11D
:1003B0000105F3DC2046AFF300802078000602D56B
:1003C0000220BDE8F0870120FBE70000074B70B575
:1003D0000D467B4400F011F80446284600F020F852
:1003E00010B14FF0FF3070BD204670BD27090000EE
:1003F00001694A1C02610878704700B58FB0CDE9E9
:1004000001310021059105497944CDE903101146D8
:100410006846FFF70DFF0FB000BD0000E5FFFFFFCE
:10042000007B00F080007047754600F02BF8AE4668
:1004300005006946534620F00700854618B020B5F0
:10044000FFF7D6FEBDE820404FF000064FF0000752
:100450004FF000084FF0000B21F00701AC46ACE86C
:10046000C009ACE8C009ACE8C009ACE8C0098D46D9
:10047000704710B50446AFF300802046BDE8104039
:10048000FFF7A2BE00487047FC000020FEE770475F
:10049000F0B5CC78002204F00F03E40601D58C7887
:1004A00023430C784FF00F0C14F0FF0F4FF0010EA8
:1004B0001BD005680E880EFA02F42640A64210D121
:1004C00096000CFA06F725EA070703FA06F5CE7838
:1004D0003D43282E02D0482E02D002E0446100E0C5
:1004E0000461521C082AE5D305600A88FF2A1CD93A
:1004F0004468002202F108060EFA06F50E882E4026
:10050000AE420ED196000CFA06F7BC4303FA06F78A
:10051000CE783C43282E00D14561CE78482E00D1BC
:100520000561521C082AE5D34460F0BD01617047A3
:10053000FEE7000070B50D4C0025C4F8A8510C482A
:10054000016821F470410160016841F4405101608B
:10055000C4F8AC51022004F5D47400F0B5FB0120BE
:100560002060022000F0B0FB256070BD00802142B9
:10057000040C014038B50121082000F05FF94FF468
:100580004064ADF8004010208DF803000320064DB4
:100590008DF8020069462846FFF77AFF2146284673
:1005A000FFF7C4FF38BD0000000C014070B50D4CD2
:1005B0000026C4F8A8610C48016821F4704101606C
:1005C000016841F4405101600125C4F8AC5102209A
:1005D00004F5D47400F078FB2560022000F074FB71
:1005E000266070BD00802142040C01402DE9F047D7
:1005F000814617480024016821F4704101600168B8
:1006000041F400410160134E254627464FF0010892
:10061000C6F8A871022000F057FBC6F8A881600652
:10062000040ED6F82C0108B1641CE4B2012000F0DD
:100630004BFB6D1CEDB2082DEAD3B9F1000F04D0CD
:10064000FFF778FF2046BDE8F087FFF7AFFFF9E737
:10065000040C0140008021422DE9F0410546164876
:10066000016821F470410160016841F4405101606A
:10067000124E0027C6F8A8713C464FF00108280624
:1006800002D5C6F8AC8101E0C6F8AC716806050E6B
:10069000022000F019FBC6F8A881022000F014FB2C
:1006A000C6F8A871022000F00FFB641CE4B2082C0D
:1006B000E5D3BDE8F0810000040C01400080214238
:1006C00070B50D48016821F470410160016841F482
:1006D00040510160094C0120C4F8AC01C4F8A801E4
:1006E000042004F5D47400F0EFFA002565600420BE
:1006F00000F0EAFA256070BD040C01400080214240
:100700000E4810B5016821F470410160016841F4A0
:10071000405101600A4C0020C4F8A801C4F8AC01A3
:10072000042004F5D47400F0CFFA0120206060604A
:10073000BDE81040042000F0C7BA0000040C0140DE
:100740000080214270B513480024016821F47041F3
:100750000160016841F4004101600F4D0126C5F8B8
:10076000AC61304600F0B0FAC5F8A861012000F095
:10077000ABFA07E0641CE4B2FA2C03D9FFF7C0FF20
:10078000012070BDD5F82C010028F3D1C5F8A801CF
:1007900070BD0000040C014000802142FEE770475C
:1007A0004FF4A06000F032B830B50F23C278017862
:1007B0000125F2B1144A126801F1E02102F4E0626D
:1007C000C2F5E062120AC2F10404D3404278A240AA
:1007D00084781C401443220181F80024007800F042
:1007E0001F018D404009800000F1E020C0F8005159
:1007F00030BD01F01F0085404809800000F1E02075
:10080000C0F8805130BD00000CED00E00249084303
:1008100002490860704700000000FA050CED00E096
:1008200070470000044A0029116901D0014300E02B
:10083000814311617047000000100240044A002902
:10084000916901D0014300E081439161704700004C
:1008500000100240044A0029D16801D0014300E0A1
:100860008143D160704700000010024030B5204A3B
:100870005168204B11F00C0103D0042901D0082944
:1008800001D0036012E05168536801F470114FF019
:10089000020413F4803F04EB914102D053689B03A0
:1008A00001D5154B00E0134B5943016051680F23EC
:1008B00003EA1111114B5C5C0168E140416054682E
:1008C000072505EA14241C5D21FA04F484605468A9
:1008D00005EAD4241B5DD940C1605268032303EAB2
:1008E0009232064B1B1F9A5CB1FBF2F1016130BDE5
:1008F0000010024000127A0000093D00180000209C
:10090000704700000CB50022264800920192016851
:1009100041F4803101604FF4A063016801F40031BB
:1009200001910099491C0091019911B900999942CE
:10093000F3D10168890333D5012101911A490A686D
:1009400042F010020A600A6822F003020A600A6894
:1009500042F002020A6041684160416841604168BA
:1009600041F480614160416821F47C11416041683B
:1009700041F4E8114160016841F080710160016853
:100980008901FCD5416821F003014160416841F0D3
:10099000020141604168C1F381010229FAD10CBD15
:1009A00001920CBD00100240002002404FF0E021F7
:1009B0000428086903D020F004000861704740F063
:1009C0000400FAE7704700000F4810B5016841F0D5
:1009D0000101016041680D4A1140416001680C4A03
:1009E00011400160016821F480210160416821F417
:1009F000FE0141604FF41F018160FFF783FF05494D
:100A00004FF00060086010BD001002400000FFF8C9
:100A1000FFFFF6FE08ED00E010B5FFF751FEAF2036
:100A2000FFF71AFEFFF78EFE0120FFF7DFFD0446F9
:100A30000020FFF7DBFD44EA0024FFF761FE2046BB
:100A400010BD000070B5154C40F22551204600F055
:100A50006FF800280ED0204600F0F8F8104AC1B216
:100A60001088030406D444044FF0000306D50A2975
:100A700001D0138070BD40F400400DE00D2909D075
:100A8000C0F30D04074D401C80B229551080C728C3
:100A9000EFD870BD40F48040108070BD0038014038
:100AA0002A000020340000200029818902D041F46E
:100AB000005101E021F4005181817047174910B5C0
:100AC00088420AD101218C032046FFF7C3FE20464D
:100AD000BDE810400021FFF7BDBE1149884202D198
:100AE00001214C0410E00F49884202D101218C04FD
:100AF0000AE00D49884202D10121CC0404E00B49EF
:100B000088420AD101210C052046FFF78BFE2046C2
:100B1000BDE810400021FFF785BE10BD0038014040
:100B20000044004000480040004C0040005000409D
:100B300070B501F01F0501260024C1F3421306FA27
:100B400005F2012B0FD0022B0FD0838A4FEA11211F
:100B50000088134206FA01F600EA060001D000B14F
:100B60000124204670BD8389F0E7038AEEE710B5C3
:100B7000C1F3421301F01F040121A140012B07D052
:100B8000022B07D01430002A026805D00A4304E083
:100B90000C30F8E71030F6E78A43026010BD000021
:100BA00030B50446008A85B00D464CF6FF7108400A
:100BB000E98801432182A0894EF6F3110840A988F3
:100BC0002A8911436A8902431143A181A08A4FF601
:100BD000FF410840A9890143A1826846FFF746FE0C
:100BE0001948844201D1039800E00298A1890904C0
:100BF00000EBC00101EB0010296801D5490000E0BD
:100C00008900B0FBF1F06422B0FBF2F109010B099D
:100C10006FF018056B4300EB8300A3891D044FF0B0
:100C2000320306D503EBC000B0FBF2F000F0070082
:100C300005E003EB0010B0FBF2F000F00F000843FA
:100C4000208105B030BD0000003801408088C0F32D
:100C500008007047FEE7704710B56FF00400FFF71B
:100C6000A5FE094809490068B0FBF1F00849C0B287
:100C700000EB40020870C2EBC0104FF6FF7202EAB0
:100C8000C000488010BD00000000002000127A0063
:100C9000300000200B49498848434FF0E02148616B
:100CA00000238B61086940F0010008610869C207F0
:100CB00001D0C003FAD5086920F0010008618B61FA
:100CC00070470000300000200B49097848434FF07E
:100CD000E021486100238B61086940F00100086150
:100CE0000869C20701D0C003FAD5086920F00100E5
:100CF00008618B61704700003000002004490A88B9
:100D00005206FCD5024AC1B2121D11807047000084
:100D1000003801404E49B0F5806F6BD01FDC2028B1
:100D200052D00CDC042849D004DC012842D002282F
:100D30003CD141E0082843D0102837D142E0B0F53B
:100D4000807F47D004DC402840D080282ED13FE06F
:100D5000B0F5007F46D0B0F5407F27D13EE0B0F53A
:100D6000005F5FD011DCB0F5406F47D006DCB0F516
:100D7000C06F3BD0B0F5006F18D143E0B0F5805F95
:100D800048D0B0F5C05F11D140E0B0F5C04F4DD0B4
:100D900006DCB0F5405F41D0B0F5804F06D149E0A8
:100DA000B0F5004F4ED0B0F5404F47D0097829A09C
:100DB000FFF732BA2DA048E030A046E033A044E06F
:100DC00036A042E039A040E03CA03EE03FA03CE03D
:100DD00042A03AE06420087044A036E05D2008702C
:100DE00044A032E05620087044A02EE04F20087046
:100DF00044A02AE04720087044A026E04020087064
:100E000044A022E03920087044A01EE0322008707F
:100E100044A01AE02B20087044A016E0242008709B
:100E200044A012E01D20087044A00EE015200870B8
:100E300044A00AE00E20087044A006E007200870D5
:100E400044A002E00020087044A0FFF7E5B90000CC
:100E5000280000204E6F204B455920507265737357
:100E600020207065723D25640D0A00004B455937FE
:100E70002050524553530D0A000000004B4559368F
:100E80002050524553530D0A000000004B45593580
:100E90002050524553530D0A000000004B45593471
:100EA0002050524553530D0A000000004B45593362
:100EB0002050524553530D0A000000004B45593253
:100EC0002050524553530D0A000000004B45593144
:100ED0002050524553530D0A000000004B45593035
:100EE0002050524553530D0A000000003130302588
:100EF000250D0A00393325250D0A00003836252531
:100F00000D0A0000373925250D0A00003731252547
:100F10000D0A0000363425250D0A00003537252539
:100F20000D0A0000353025250D0A00003433252533
:100F30000D0A0000333625250D0A0000323925251B
:100F40000D0A0000323125250D0A00003134252517
:100F5000640D0A00372525640D0A0000302525643C
:100F60000D0A0000FFF778FEFFF71AFC4FF4E1309E
:100F700000F00AF8FFF7FEFAFFF74EFDFFF7CAFE92
:100F8000C820FFF787FEF7E7F0B5064687B00121D6
:100F900044F20400FFF752FC224D2846FFF78EFD75
:100FA0006815ADF8100003248DF8124018201E4F6C
:100FB0008DF8130004A93846FFF76AFA2815ADF832
:100FC000100004208DF8130004A93846FFF760FADA
:100FD00025208DF814008DF815408DF8164001205D
:100FE0008DF8170005A8FFF7DFFB0021ADF808100A
:100FF000ADF804100C20ADF80610ADF80C10ADF8EB
:101000000A00009669462846FFF7CAFD012240F211
:1010100025512846FFF7ABFD01212846FFF744FD87
:1010200007B0F0BD00380140000801404C10000836
:1010300000000020340000006C010008801000084F
:10104000340000202C0700008801000800A24A0498
:101050000000000000000000010203040607080968
:101060000204060800000000010203040102030458
:101070000607080900000000000000000000000052
:0400000508000131BD
:00000001FF
