:020000040800F2
:1000000078060020CD010008E7030008E30300089C
:10001000E50300081503000875070008000000004C
:100020000000000000000000000000006F05000854
:100030001703000800000000A904000819060008C2
:10004000E7010008E7010008E7010008E7010008F0
:10005000E7010008E7010008E7010008E7010008E0
:10006000E7010008E7010008E7010008E7010008D0
:10007000E7010008E7010008E7010008E7010008C0
:10008000E7010008E7010008E7010008E7010008B0
:10009000E7010008E7010008E7010008E7010008A0
:1000A000E7010008E7010008E7010008E701000890
:1000B000E7010008E7010008E7010008E701000880
:1000C000E7010008E7010008E7010008E701000870
:1000D000E7010008E7010008E7010008E701000860
:1000E000E7010008E7010008E7010008E701000850
:1000F000E7010008E7010008E7010008E701000840
:10010000E7010008E7010008E7010008E70100082F
:10011000E7010008E7010008E7010008E70100081F
:10012000E7010008E7010008E7010008E70100080F
:1001300000F002F800F03AF80AA090E8000C8244BF
:100140008344AAF10107DA4501D100F02FF8AFF29C
:10015000090EBAE80F0013F0010F18BFFB1A43F0A5
:1001600001031847D4070000F4070000103A24BF29
:1001700078C878C1FAD8520724BF30C830C144BF0C
:1001800004680C607047000000230024002500264E
:10019000103A28BF78C1FBD8520728BF30C148BFEA
:1001A0000B6070471FB51FBD10B510BD00F06EF895
:1001B0001146FFF7F7FF00F011FB00F0A0F803B4C1
:1001C000FFF7F2FF03BC00F0F5FA00000948804792
:1001D00009480047FEE7FEE7FEE7FEE7FEE7FEE729
:1001E000FEE7FEE7FEE7FEE704480549054A064B41
:1001F000704700001D06000831010008780000204B
:100200007806002078020020780200207047000065
:100210000FB4044910B503AA029800F009F810BC05
:100220005DF814FB1400002070477047704770475A
:10023000074B70B50D467B4400F011F80446284684
:1002400000F020F810B14FF0FF3070BD204670BDB7
:100250007F05000001694A1C02610878704700B5FB
:100260008FB0CDE901310021059105497944CDE9EF
:1002700003101146684600F02EF80FB000BD0000D4
:10028000E5FFFFFF007B00F080007047754600F03F
:100290003DF8AE4605006946534620F00700854606
:1002A00018B020B5FFF7A0FFBDE820404FF00006D2
:1002B0004FF000074FF000084FF0000B21F007014E
:1002C000AC46ACE8C009ACE8C009ACE8C009ACE891
:1002D000C0098D4670472DE9F04106460024D6E955
:1002E0000170F5688046304603E04146B847641C1B
:1002F0003046A8470028F8D12046BDE8F0810446E2
:10030000AFF300802046FFF75AFF00000048704717
:1003100018000020FEE7704708B50121042000F016
:10032000C5F84CF23F00ADF8000004208DF8030042
:100330006946024800F004F808BD000000080140CA
:10034000F0B5CC78002204F00F03E40601D58C78D8
:1003500023430C784FF00F0C14F0FF0F4FF0010EF9
:100360001BD005680E880EFA02F42640A64210D172
:1003700096000CFA06F725EA070703FA06F5CE7889
:100380003D43282E02D0482E02D002E0446100E016
:100390000461521C082AE5D305600A88FF2A1CD98B
:1003A0004468002202F108060EFA06F50E882E4077
:1003B000AE420ED196000CFA06F7BC4303FA06F7DC
:1003C000CE783C43282E00D14561CE78482E00D10E
:1003D0000561521C082AE5D34460F0BD806880B2F4
:1003E0007047FEE7FEE7704708B500214FF0006058
:1003F00000F050F84FF4A06000F042F825208DF88E
:10040000000001208DF8010000218DF802108DF808
:100410000300684600F002F808BD000030B50F2365
:10042000C27801780125F2B1144A126801F1E02185
:1004300002F4E062C2F5E062120AC2F10404D340A1
:100440004278A24084781C401443220181F80024A1
:10045000007800F01F018D404009800000F1E0208D
:10046000C0F8005130BD01F01F00854048098000F0
:1004700000F1E020C0F8805130BD00000CED00E03C
:100480000249084302490860704700000000FA056D
:100490000CED00E0024A1140014302480160704740
:1004A00080FFFF1F08ED00E070470000044A0029AC
:1004B000916901D0014300E08143916170470000E0
:1004C0000010024030B5204A5168204B11F00C0159
:1004D00003D0042901D0082901D0036012E051683B
:1004E000536801F470114FF0020413F4803F04EBE1
:1004F000914102D053689B0301D5154B00E0134B8B
:100500005943016051680F2303EA1111114B5C5CE0
:100510000168E14041605468072505EA14241C5D28
:1005200021FA04F48460546805EAD4241B5DD940A0
:10053000C1605268032303EA9232064B1B1F9A5C88
:10054000B1FBF2F1016130BD0010024000127A00EF
:1005500000093D000400002010B501210520FFF72F
:10056000A5FF0121BDE810408803FFF79FBF70473A
:100570000CB50022264800920192016841F48031B6
:1005800001604FF4A063016801F40031019100990A
:10059000491C0091019911B900999942F3D1016860
:1005A000890333D5012101911A490A6842F01002EA
:1005B0000A600A6822F003020A600A6842F0020236
:1005C0000A604168416041684160416841F480616E
:1005D0004160416821F47C114160416841F4E811B7
:1005E0004160016841F08071016001688901FCD5BA
:1005F000416821F003014160416841F0020141601E
:100600004168C1F381010229FAD10CBD01920CBDF0
:100610000010024000200240704700000F4810B553
:10062000016841F00101016041680D4A11404160DB
:1006300001680C4A11400160016821F480210160C9
:10064000416821F4FE0141604FF41F018160FFF712
:100650008FFF05494FF00060086010BD0010024098
:100660000000FFF8FFFFF6FE08ED00E00029818999
:1006700002D041F4005101E021F400518181704722
:100680000246002012880A4200D00120704710B5AF
:10069000C1F3421301F01F040121A140012B07D037
:1006A000022B07D01430002A026805D00A4304E068
:1006B0000C30F8E71030F6E78A43026010BD000006
:1006C00030B50446008A85B00D464CF6FF710840EF
:1006D000E98801432182A0894EF6F3110840A988D8
:1006E0002A8911436A8902431143A181A08A4FF6E6
:1006F000FF410840A9890143A1826846FFF7E2FE55
:100700001948844201D1039800E00298A1890904A4
:1007100000EBC00101EB0010296801D5490000E0A1
:100720008900B0FBF1F06422B0FBF2F109010B0982
:100730006FF018056B4300EB8300A3891D044FF095
:10074000320306D503EBC000B0FBF2F000F0070067
:1007500005E003EB0010B0FBF2F000F00F000843DF
:10076000208105B030BD000000380140C1F3080110
:1007700081807047FEE7000038B518208DF803002F
:100780004FF40070ADF800000320094C8DF8020012
:1007900069462046FFF7D4FD04218DF803100902B5
:1007A000ADF8001069462046FFF7CAFD38BD0000CD
:1007B000000801407047000070B5074D0446C1B203
:1007C0002846FFF7D3FF80212846FFF759FF00286E
:1007D000F9D0204670BD000000380140FFF71EFF31
:1007E000FFF79AFD00F082F8FFF7FEFD194F4FF476
:1007F0008045194C6E003846FFF7F0FD20F47F501D
:1008000010281ED008DC01280ED002280ED00428A3
:1008100013D008281BD112E0202814D0A84214D0ED
:10082000B04214D10DA002E010A000E013A0FFF729
:10083000EFFC2046401EFDD1DDE714A0F7E717A02E
:10084000F5E71AA0F3E71DA0F1E720A0EFE723A04A
:10085000EDE7000000080140404B4C004B45593784
:100860002050524553530D0A000000004B455930AB
:100870002050524553530D0A000000004B4559319A
:100880002050524553530D0A000000004B45593289
:100890002050524553530D0A000000004B45593378
:1008A0002050524553530D0A000000004B45593467
:1008B0002050524553530D0A000000004B45593556
:1008C0002050524553530D0A000000004B45593645
:1008D0002050524553530D0A000000004E4F204B4C
:1008E00045592050524553530D0A00001FB5FFF7DC
:1008F00033FE4FF4E13000900020ADF80600ADF873
:100900000400ADF80800ADF80C000C20094CADF85F
:100910000A0069462046FFF7D3FE012240F2255126
:100920002046FFF7B4FE01212046FFF79FFEFFF7A8
:1009300023FF1FBD003801405809000800000020B7
:10094000180000006C010008700900081800002061
:10095000600600008801000802040608000000008C
:100960000102030401020304060708090000000055
:0400000508000131BD
:00000001FF
